:1000000023C03DC03CC03BC03AC039C038C037C037
:1000100036C035C034C033C032C031C030C02FC04C
:100020002EC02DC02CC02BC02AC08BC028C027C01A
:1000300026C025C018C119C11AC11BC11CC11DC1D0
:100040001EC11FC120C121C111241FBECFEFD2E0AC
:10005000DEBFCDBF11E0A0E0B1E0ECE6F6E002C00B
:1000600005900D92A230B107D9F721E0A2E0B1E0EE
:1000700001C01D92A139B207E1F74AD1F5C2C0CF44
:100080002AEF30E0E22FF32F3197F1F7A8958A9508
:10009000C9F708958436910518F482E090E0089538
:1000A00083E090E008959C0180E090E024363105E3
:1000B00020F0245631090196F9CF08958436910530
:1000C00018F084569109FACF20E030E08A3091058B
:1000D00020F00A972F5F3F4FF9CFC9010895EAE753
:1000E000F0E0808181608083808182608083808174
:1000F0008B7F8083ACE7B0E08C9180648C938081AF
:100100008860808380818068808380818064808330
:10011000089580917A00806480937A0080917A00BB
:1001200086FDFCCF809178009091790008958FEF43
:100130008AB91BB8209A219A229A289A299A2A9A2F
:1001400008951F920F920FB60F9211242F933F9391
:100150008F93EF93FF93809103012091780030916A
:100160007900E82FF0E0EE0FFF1FE65FFE4F3183CE
:1001700020838F5F80930301FF91EF918F913F91D7
:100180002F910F900FBE0F901F90189510920301A2
:1001900080910A0190910B019C0146E0220F331FD0
:1001A0004A95E1F7820F931F9093900180938F01FE
:1001B00056E0969587955A95E1F790938B01809339
:1001C0008A0190938E0180938D01089560918D0135
:1001D00070918E0180E090E056D120E030E040E662
:1001E00050E4BDD020E030E040E251E4DAD11FD14C
:1001F0006639710548F080E090E045D126EF38E29D
:100200004CE75FE3CED113D170938E0160938D01E3
:10021000089520918D0130918E01C90164E670E04E
:100220008AD0462F60938C01C90154E6659F8019DE
:10023000910911246AE070E07ED06093090184E6A0
:10024000489F201911245AE0659F201911242093FA
:1002500002010895482F50E04A305105B8F4FA01E0
:10026000E65EFF4F099497E711C092E10FC09DE34E
:100270000DC09EE30BC09AE509C09EE607C09FE64D
:1002800005C092E303C09FE701C09AE7892F089554
:10029000613029F4289A299A2A9A28980DC0623048
:1002A00029F4289A299A2A9A299806C0633021F4B9
:1002B000289A299A2A9A2A988BB981E0E1DE289A0D
:1002C000299A2A9A0895CF9381E080930001C091E2
:1002D0000001C430D8F4C13019F480918C010BC0F6
:1002E000C23029F480910901B5DF806805C0C330B0
:1002F00029F480910201AEDF809308016C2F809178
:100300000801C6DF809100018F5FDFCFCF91089594
:100310000EDFE5DE789480917A00806480937A0025
:1003200080910301803429F4109203012FDF4EDF06
:1003300070DFC9DFF0CFAA1BBB1B51E107C0AA1FAA
:10034000BB1FA617B70710F0A61BB70B881F991F76
:100350005A95A9F780959095BC01CD0108950CD0D0
:10036000E6C0DED040F0D5D030F021F45F3F19F088
:10037000C7C0511110C1CAC0EBD098F39923C9F37B
:100380005523B1F3951B550BBB27AA27621773079B
:10039000840738F09F5F5F4F220F331F441FAA1F4F
:1003A000A9F333D00E2E3AF0E0E830D0915050400F
:1003B000E695001CCAF729D0FE2F27D0660F771FBD
:1003C000881FBB1F261737074807AB07B0E809F09F
:1003D000BB0B802DBF01FF2793585F4F2AF09E3F34
:1003E000510568F08DC0D7C05F3FECF3983EDCF359
:1003F000869577956795B795F7959F5FC9F7880FAD
:10040000911D9695879597F90895E1E0660F771FFE
:10041000881FBB1F621773078407BA0720F0621B8F
:10042000730B840BBA0BEE1F88F7E095089598D0F4
:1004300088F09F5790F0B92F9927B751A0F0D1F0CD
:10044000660F771F881F991F1AF0BA95C9F712C057
:10045000B13081F09FD0B1E008959CC0672F782F14
:100460008827B85F39F0B93FCCF3869577956795C3
:10047000B395D9F73EF490958095709561957F4F2F
:100480008F4F9F4F0895E89409C097FB3EF49095D5
:100490008095709561957F4F8F4F9F4F9923A9F05D
:1004A000F92F96E9BB279395F695879577956795EC
:1004B000B795F111F8CFFAF4BB0F11F460FF1BC030
:1004C0006F5F7F4F8F4F9F4F16C0882311F096E9C3
:1004D00011C0772321F09EE8872F762F05C0662371
:1004E00071F096E8862F70E060E02AF09A95660F2A
:1004F000771F881FDAF7880F9695879597F90895E3
:1005000097F99F6780E870E060E008959FEF80ECC6
:10051000089500240A941616170618060906089569
:1005200000240A9412161306140605060895092ECF
:100530000394000C11F4882352F0BB0F40F4BF2B3E
:1005400011F460FF04C06F5F7F4F8F4F9F4F08957E
:1005500057FD9058440F551F59F05F3F71F0479574
:10056000880F97FB991F61F09F3F79F08795089559
:10057000121613061406551FF2CF4695F1DF08C078
:10058000161617061806991FF1CF86957105610595
:1005900008940895E894BB2766277727CB0197F93D
:1005A00008950BD0C4CFB5DF28F0BADF18F095233B
:1005B00009F0A6CFABCF1124EECFCADFA0F3959FF1
:1005C000D1F3950F50E0551F629FF001729FBB273A
:1005D000F00DB11D639FAA27F00DB11DAA1F649FE6
:1005E0006627B00DA11D661F829F2227B00DA11D99
:1005F000621F739FB00DA11D621F839FA00D611D1F
:10060000221F749F3327A00D611D231F849F600D3F
:10061000211D822F762F6A2F11249F5750408AF078
:10062000E1F088234AF0EE0FFF1FBB1F661F771F04
:10063000881F91505040A9F79E3F510570F060CF40
:10064000AACF5F3FECF3983EDCF3869577956795EC
:10065000B795F795E7959F5FC1F7FE2B880F911D22
:0C0660009695879597F90895F894FFCFC0
:00000001FF
